{
  "_format": "hh-sol-artifact-1",
  "contractName": "Todo",
  "sourceName": "contracts/Todo.sol",
  "abi": [
    {
      "inputs": [
        {
          "internalType": "string",
          "name": "description",
          "type": "string"
        }
      ],
      "name": "addTodo",
      "outputs": [],
      "stateMutability": "nonpayable",
      "type": "function"
    },
    {
      "inputs": [
        {
          "internalType": "uint256",
          "name": "index",
          "type": "uint256"
        }
      ],
      "name": "completeTodo",
      "outputs": [],
      "stateMutability": "nonpayable",
      "type": "function"
    },
    {
      "inputs": [
        {
          "internalType": "string",
          "name": "description",
          "type": "string"
        },
        {
          "internalType": "uint256",
          "name": "index",
          "type": "uint256"
        }
      ],
      "name": "editTodo",
      "outputs": [],
      "stateMutability": "nonpayable",
      "type": "function"
    },
    {
      "inputs": [],
      "name": "getTodo",
      "outputs": [
        {
          "components": [
            {
              "internalType": "string",
              "name": "description",
              "type": "string"
            },
            {
              "internalType": "bool",
              "name": "isCompleted",
              "type": "bool"
            },
            {
              "internalType": "uint256",
              "name": "timestamp",
              "type": "uint256"
            }
          ],
          "internalType": "struct Todo.TodoList[]",
          "name": "",
          "type": "tuple[]"
        }
      ],
      "stateMutability": "view",
      "type": "function"
    },
    {
      "inputs": [
        {
          "internalType": "uint256",
          "name": "index",
          "type": "uint256"
        }
      ],
      "name": "removeTodo",
      "outputs": [],
      "stateMutability": "nonpayable",
      "type": "function"
    },
    {
      "inputs": [
        {
          "internalType": "address",
          "name": "",
          "type": "address"
        },
        {
          "internalType": "uint256",
          "name": "",
          "type": "uint256"
        }
      ],
      "name": "todoList",
      "outputs": [
        {
          "internalType": "string",
          "name": "description",
          "type": "string"
        },
        {
          "internalType": "bool",
          "name": "isCompleted",
          "type": "bool"
        },
        {
          "internalType": "uint256",
          "name": "timestamp",
          "type": "uint256"
        }
      ],
      "stateMutability": "view",
      "type": "function"
    }
  ],
  "bytecode": "0x608060405234801561001057600080fd5b50611349806100206000396000f3fe608060405234801561001057600080fd5b50600436106100625760003560e01c80630be5e53f1461006757806320fe2144146100835780633be3d7031461009f5780637fa1680a146100bb57806395ffebf5146100d9578063a5e4f21a146100f5575b600080fd5b610081600480360381019061007c919061099b565b610127565b005b61009d600480360381019061009891906109f7565b61019a565b005b6100b960048036038101906100b491906109f7565b610217565b005b6100c36104b6565b6040516100d09190610bdf565b60405180910390f35b6100f360048036038101906100ee9190610c01565b610608565b005b61010f600480360381019061010a9190610ca8565b6106d2565b60405161011e93929190610d50565b60405180910390f35b816000803373ffffffffffffffffffffffffffffffffffffffff1673ffffffffffffffffffffffffffffffffffffffff168152602001908152602001600020828154811061017857610177610d8e565b5b906000526020600020906003020160000190816101959190610fc9565b505050565b60016000803373ffffffffffffffffffffffffffffffffffffffff1673ffffffffffffffffffffffffffffffffffffffff16815260200190815260200160002082815481106101ec576101eb610d8e565b5b906000526020600020906003020160010160006101000a81548160ff02191690831515021790555050565b6000803373ffffffffffffffffffffffffffffffffffffffff1673ffffffffffffffffffffffffffffffffffffffff16815260200190815260200160002080549050811061029a576040517f08c379a0000000000000000000000000000000000000000000000000000000008152600401610291906110e7565b60405180910390fd5b60008190505b60016000803373ffffffffffffffffffffffffffffffffffffffff1673ffffffffffffffffffffffffffffffffffffffff168152602001908152602001600020805490506102ee9190611136565b81101561041f576000803373ffffffffffffffffffffffffffffffffffffffff1673ffffffffffffffffffffffffffffffffffffffff168152602001908152602001600020600182610340919061116a565b8154811061035157610350610d8e565b5b90600052602060002090600302016000803373ffffffffffffffffffffffffffffffffffffffff1673ffffffffffffffffffffffffffffffffffffffff16815260200190815260200160002082815481106103af576103ae610d8e565b5b9060005260206000209060030201600082018160000190816103d191906111b4565b506001820160009054906101000a900460ff168160010160006101000a81548160ff0219169083151502179055506002820154816002015590505080806104179061129c565b9150506102a0565b506000803373ffffffffffffffffffffffffffffffffffffffff1673ffffffffffffffffffffffffffffffffffffffff16815260200190815260200160002080548061046e5761046d6112e4565b5b60019003818190600052602060002090600302016000808201600061049391906107ae565b6001820160006101000a81549060ff021916905560028201600090555050905550565b60606000803373ffffffffffffffffffffffffffffffffffffffff1673ffffffffffffffffffffffffffffffffffffffff168152602001908152602001600020805480602002602001604051908101604052809291908181526020016000905b828210156105ff578382906000526020600020906003020160405180606001604052908160008201805461054990610dec565b80601f016020809104026020016040519081016040528092919081815260200182805461057590610dec565b80156105c25780601f10610597576101008083540402835291602001916105c2565b820191906000526020600020905b8154815290600101906020018083116105a557829003601f168201915b505050505081526020016001820160009054906101000a900460ff1615151515815260200160028201548152505081526020019060010190610516565b50505050905090565b6000803373ffffffffffffffffffffffffffffffffffffffff1673ffffffffffffffffffffffffffffffffffffffff168152602001908152602001600020604051806060016040528083815260200160001515815260200142815250908060018154018082558091505060019003906000526020600020906003020160009091909190915060008201518160000190816106a29190610fc9565b5060208201518160010160006101000a81548160ff02191690831515021790555060408201518160020155505050565b600060205281600052604060002081815481106106ee57600080fd5b90600052602060002090600302016000915091505080600001805461071290610dec565b80601f016020809104026020016040519081016040528092919081815260200182805461073e90610dec565b801561078b5780601f106107605761010080835404028352916020019161078b565b820191906000526020600020905b81548152906001019060200180831161076e57829003601f168201915b5050505050908060010160009054906101000a900460ff16908060020154905083565b5080546107ba90610dec565b6000825580601f106107cc57506107eb565b601f0160209004906000526020600020908101906107ea91906107ee565b5b50565b5b808211156108075760008160009055506001016107ef565b5090565b6000604051905090565b600080fd5b600080fd5b600080fd5b600080fd5b6000601f19601f8301169050919050565b7f4e487b7100000000000000000000000000000000000000000000000000000000600052604160045260246000fd5b61087282610829565b810181811067ffffffffffffffff821117156108915761089061083a565b5b80604052505050565b60006108a461080b565b90506108b08282610869565b919050565b600067ffffffffffffffff8211156108d0576108cf61083a565b5b6108d982610829565b9050602081019050919050565b82818337600083830152505050565b6000610908610903846108b5565b61089a565b90508281526020810184848401111561092457610923610824565b5b61092f8482856108e6565b509392505050565b600082601f83011261094c5761094b61081f565b5b813561095c8482602086016108f5565b91505092915050565b6000819050919050565b61097881610965565b811461098357600080fd5b50565b6000813590506109958161096f565b92915050565b600080604083850312156109b2576109b1610815565b5b600083013567ffffffffffffffff8111156109d0576109cf61081a565b5b6109dc85828601610937565b92505060206109ed85828601610986565b9150509250929050565b600060208284031215610a0d57610a0c610815565b5b6000610a1b84828501610986565b91505092915050565b600081519050919050565b600082825260208201905092915050565b6000819050602082019050919050565b600081519050919050565b600082825260208201905092915050565b60005b83811015610a8a578082015181840152602081019050610a6f565b60008484015250505050565b6000610aa182610a50565b610aab8185610a5b565b9350610abb818560208601610a6c565b610ac481610829565b840191505092915050565b60008115159050919050565b610ae481610acf565b82525050565b610af381610965565b82525050565b60006060830160008301518482036000860152610b168282610a96565b9150506020830151610b2b6020860182610adb565b506040830151610b3e6040860182610aea565b508091505092915050565b6000610b558383610af9565b905092915050565b6000602082019050919050565b6000610b7582610a24565b610b7f8185610a2f565b935083602082028501610b9185610a40565b8060005b85811015610bcd5784840389528151610bae8582610b49565b9450610bb983610b5d565b925060208a01995050600181019050610b95565b50829750879550505050505092915050565b60006020820190508181036000830152610bf98184610b6a565b905092915050565b600060208284031215610c1757610c16610815565b5b600082013567ffffffffffffffff811115610c3557610c3461081a565b5b610c4184828501610937565b91505092915050565b600073ffffffffffffffffffffffffffffffffffffffff82169050919050565b6000610c7582610c4a565b9050919050565b610c8581610c6a565b8114610c9057600080fd5b50565b600081359050610ca281610c7c565b92915050565b60008060408385031215610cbf57610cbe610815565b5b6000610ccd85828601610c93565b9250506020610cde85828601610986565b9150509250929050565b600082825260208201905092915050565b6000610d0482610a50565b610d0e8185610ce8565b9350610d1e818560208601610a6c565b610d2781610829565b840191505092915050565b610d3b81610acf565b82525050565b610d4a81610965565b82525050565b60006060820190508181036000830152610d6a8186610cf9565b9050610d796020830185610d32565b610d866040830184610d41565b949350505050565b7f4e487b7100000000000000000000000000000000000000000000000000000000600052603260045260246000fd5b7f4e487b7100000000000000000000000000000000000000000000000000000000600052602260045260246000fd5b60006002820490506001821680610e0457607f821691505b602082108103610e1757610e16610dbd565b5b50919050565b60008190508160005260206000209050919050565b60006020601f8301049050919050565b600082821b905092915050565b600060088302610e7f7fffffffffffffffffffffffffffffffffffffffffffffffffffffffffffffffff82610e42565b610e898683610e42565b95508019841693508086168417925050509392505050565b6000819050919050565b6000610ec6610ec1610ebc84610965565b610ea1565b610965565b9050919050565b6000819050919050565b610ee083610eab565b610ef4610eec82610ecd565b848454610e4f565b825550505050565b600090565b610f09610efc565b610f14818484610ed7565b505050565b5b81811015610f3857610f2d600082610f01565b600181019050610f1a565b5050565b601f821115610f7d57610f4e81610e1d565b610f5784610e32565b81016020851015610f66578190505b610f7a610f7285610e32565b830182610f19565b50505b505050565b600082821c905092915050565b6000610fa060001984600802610f82565b1980831691505092915050565b6000610fb98383610f8f565b9150826002028217905092915050565b610fd282610a50565b67ffffffffffffffff811115610feb57610fea61083a565b5b610ff58254610dec565b611000828285610f3c565b600060209050601f8311600181146110335760008415611021578287015190505b61102b8582610fad565b865550611093565b601f19841661104186610e1d565b60005b8281101561106957848901518255600182019150602085019450602081019050611044565b868310156110865784890151611082601f891682610f8f565b8355505b6001600288020188555050505b505050505050565b7f496e646578206f7574206f6620626f756e647300000000000000000000000000600082015250565b60006110d1601383610ce8565b91506110dc8261109b565b602082019050919050565b60006020820190508181036000830152611100816110c4565b9050919050565b7f4e487b7100000000000000000000000000000000000000000000000000000000600052601160045260246000fd5b600061114182610965565b915061114c83610965565b925082820390508181111561116457611163611107565b5b92915050565b600061117582610965565b915061118083610965565b925082820190508082111561119857611197611107565b5b92915050565b6000815490506111ad81610dec565b9050919050565b8181036111c257505061129a565b6111cb8261119e565b67ffffffffffffffff8111156111e4576111e361083a565b5b6111ee8254610dec565b6111f9828285610f3c565b6000601f8311600181146112285760008415611216578287015490505b6112208582610fad565b865550611293565b601f19841661123687610e1d565b965061124186610e1d565b60005b8281101561126957848901548255600182019150600185019450602081019050611244565b868310156112865784890154611282601f891682610f8f565b8355505b6001600288020188555050505b5050505050505b565b60006112a782610965565b91507fffffffffffffffffffffffffffffffffffffffffffffffffffffffffffffffff82036112d9576112d8611107565b5b600182019050919050565b7f4e487b7100000000000000000000000000000000000000000000000000000000600052603160045260246000fdfea26469706673582212203bca34ed53f373f26bbde0e9e082a9b8b9ad2365007d5a924dea75e1ec78035064736f6c63430008130033",
  "linkReferences": {},
  "deployedLinkReferences": {}
}